:020000040800F2
:100000000004002047010008990600089B0600082C
:100010009F060008A3060008A706000800000000CD
:10002000000000000000000000000000AB06000817
:10003000AD06000800000000AF060008B106000889
:1000400067010008670100086701000867010008F0
:1000500067010008670100086701000867010008E0
:1000600067010008670100086701000867010008D0
:1000700067010008670100086701000867010008C0
:1000800067010008670100086701000867010008B0
:1000900067010008670100086701000867010008A0
:1000A0006701000867010008670100086701000890
:1000B00067010008D3020008670100086701000813
:1000C0006701000867010008670100086701000870
:1000D000670100080F0600086701000867010008B3
:1000E0006701000867010008670100086701000850
:1000F0006701000867010008670100086701000840
:10010000670100086701000867010008670100082F
:10011000670100086701000867010008670100081F
:10012000670100086701000867010008670100080F
:10013000DFF80CD002F07EF8004800477501000897
:10014000E8020020704708488047084981F3088882
:1001500007480047FEE7FEE7FEE7FEE7FEE7FEE7AB
:10016000FEE7FEE7FEE7FEE745010008E8020020A3
:100170003101000870B50024002501F0FFFF482080
:1001800000F035F84FF4E13000F0F3F94FF4A060DF
:1001900001F014FF0121054800F0C5FB4FF49670F3
:1001A00000F046F800F046F9002070BD0002300073
:1001B0002F4909884143491E4FF0E0225161012136
:1001C00091611146096941F00101116100BF4FF0D1
:1001D000E021096901F480310029F8D04FF0E021D5
:1001E000096921F001014FF0E022116170474FF0E1
:1001F000E021096921F004014FF0E022116111466C
:10020000096921F002011161C21700EB5272C2F3B9
:10021000C702184B1A701946097801EB4102C2EB6C
:10022000C1114FF6FF7202EAC101114A11807047F5
:10023000104909784143491E4FF0E02251610121E4
:1002400091611146096941F00101116100BF4FF050
:10025000E021096901F480310029F8D04FF0E02154
:10026000096921F001014FF0E0221161704700009F
:1002700000000020020000207FB505460C46012149
:10028000022000F028FDADF80850ADF80440002031
:10029000ADF80A00ADF8060001A9114801F015F902
:1002A000012211460E4801F0B1FB1D208DF800001F
:1002B00000208DF8010003208DF8020001208DF848
:1002C0000300684601F07FFE0121054801F083FB31
:1002D0007FBD10B50121024801F05BFE10BD00009A
:1002E0000004004000B587B00121082000F0E6FCC2
:1002F0000121880300F0EFFC4FF46040ADF80400EA
:1003000003208DF8060018208DF8070001A98D48FC
:1003100000F038FA0020ADF808004FF48270ADF814
:100320000A000020ADF80C00ADF80E000120ADF879
:1003300010004002ADF812002820ADF81400002093
:10034000ADF816000720ADF8180002A97E4800F0AD
:10035000FDFE01217C4800F096FF07B000BD08B506
:100360000121082000F0AAFC4FF40060ADF8000065
:1003700048208DF8030003208DF80200694671487B
:1003800000F000FA4FF480516E4800F0A8FA4FF4E4
:100390008050ADF8000003208DF8020010208DF889
:1003A00003006946674800F0EDF9FFF79BFF08BDC1
:1003B00070B50446002500BF0221634800F0E7FF46
:1003C0000028F9D02146604800F08EFF00BF0121CF
:1003D0005D4800F0DCFF0028F9D05B4800F086FFA4
:1003E000C5B22A46214659A001F056FF284670BDE5
:1003F00070B504460D464FF48051524800F071FA32
:1004000000BF50480830006800F400600028F8D1B0
:1004100004F00F0141F05000FFF7CAFF0020FFF782
:10042000C7FF2846FFF7C4FF4FF48051454800F04E
:1004300056FA70BD10B5FFF792FF00BF4148083073
:10044000006800F400600028F8D14FF480513D4866
:1004500000F047FAF020FFF7ABFF00BF3948083043
:10046000006800F400600028F8D14FF4805135484E
:1004700000F035FA06210020FFF7BAFF0021022024
:10048000FFF7B6FFF0210320FFF7B2FF00210420A1
:10049000FFF7AEFF00BF2B480830006800F4006093
:1004A0000028F8D14FF48051264800F01AFAF020C5
:1004B000FFF77EFF00BF23480830006800F40060AB
:1004C0000028F8D14FF480511E4800F008FA10BD02
:1004D00070B50546002400BF1A480830006800F4D3
:1004E00000600028F8D129460120FFF781FF4FF472
:1004F0008051144800F0F5F9FC20FFF759FF002067
:10050000FFF756FF0120FFF753FF0120FFF750FED2
:10051000FF20FFF74DFF44EA0044FF20FFF748FFAC
:1005200044EA0024FF20FFF743FF04434FF48051C7
:10053000044800F0D4F9B4F5000F01D3A4F180749D
:10054000204670BD000C01400038004025782C2565
:10055000780A0000014600BF704700BF4A4A12886F
:1005600002F04002002AF9D0C2B2474B1B1D1A808C
:10057000704710B586B004460121042000F09EFBB0
:100580000121880300F09AFB4FF40070ADF81400CD
:1005900003208DF8160018208DF8170005A93B4898
:1005A00000F0F0F84FF48060ADF8140004208DF8EE
:1005B000170005A9354800F0E5F825208DF8000062
:1005C00001208DF801008DF802008DF803006846C7
:1005D00001F0F9FC01940020ADF80800ADF80A0024
:1005E000ADF80C00ADF810000C20ADF80E0001A91C
:1005F000254800F010FC012240F22551224800F06D
:1006000084FC0121204800F074FC06B010BD10B538
:1006100040F225511C4800F037FD10B31A4800F095
:10062000D4FCC4B21A48008800F40040C8B9184885
:10063000008800F4804060B10A2C03D000201449E7
:10064000088020E01248008840F4004010490880EB
:1006500019E00D2C06D10E48008840F480400C496A
:10066000088010E00A480088C0F30D0009490C54C6
:1006700007480088401C0649088008460088C728AB
:1006800001DD0020088010BD003801400008014055
:100690000800002020000020704700BFFEE700BFD8
:1006A000FEE700BFFEE700BFFEE7704770477047F8
:1006B0007047000010B50446C649601A8C422FD01E
:1006C00009DCC548204480B1B0F5806F16D0B0F584
:1006D000006F4AD11BE0B0F5806F2AD0B0F5006FF3
:1006E00030D0B0F5406F40D135E00121042000F05A
:1006F000FFFA0021042000F0FBFA37E00121082076
:1007000000F0F6FA0021082000F0F2FA2EE00121B4
:10071000102000F0EDFA0021102000F0E9FA25E0A9
:100720000121202000F0E4FA0021202000F0E0FA6E
:100730001CE00121402000F0DBFA0021402000F005
:10074000D7FA13E00121802000F0D2FA00218020A6
:1007500000F0CEFA0AE00121080200F0C9FA0021F7
:100760004FF4807000F0C4FA00E000BF00BF10BD7D
:1007700010B50121084600F0BBFA0021012000F06D
:10078000B7FA10BD2DE9F0410246002500260020F1
:1007900000230024002791F803C00CF00F0591F806
:1007A00003C00CF0100CBCF1000F03D091F802C094
:1007B0004CEA050591F800C0BCF1000F31D0146877
:1007C00000202BE04FF0010C0CFA00F3B1F800C050
:1007D0000CEA03069E4220D183004FF00F0C0CFA66
:1007E00003F7BC4305FA03FC4CEA040491F803C088
:1007F000BCF1280F06D14FF0010C0CFA00FCC2F836
:1008000014C00AE091F803C0BCF1480F05D14FF0C5
:10081000010C0CFA00FCC2F810C0401C0828D1D30F
:100820001460B1F800C0BCF1FF0F34DD5468002043
:100830002EE000F1080C4FF0010808FA0CF3B1F8B3
:1008400000C00CEA03069E4221D183004FF00F0C3A
:100850000CFA03F7BC4305FA03FC4CEA040491F8D4
:1008600003C0BCF1280F05D100F1080C08FA0CF800
:10087000C2F8148091F803C0BCF1480F07D100F111
:10088000080C4FF0010808FA0CF8C2F81080401C60
:100890000828CED35460BDE8F0814FF6FF71018087
:1008A000022181700421C1707047024600209368C4
:1008B0000B400BB1012000E0002070470146886822
:1008C00080B2704702460020D3680B400BB1012074
:1008D00000E0002070470146C86880B2704701619F
:1008E0007047416170470AB1016100E041617047A2
:1008F000C16070474FF480320A4382618161826136
:1009000082698269704702460020344B18684FF6AE
:100910008073184040EA02100843304B186070475B
:100920002F49C8617047F0B50A4600230024002112
:1009300000252A4E7168C0F3034583B200F44016C7
:10094000B6F5401F08D121F07061244E766826F07C
:100950007066224F7E6012E000F48016B6F5801FAC
:1009600006D1032606FA05F4A14341F0706106E0C2
:10097000460D360103FA06F6B14341F0706122B12B
:10098000460D360103FA06F63143144E7160F0BD90
:1009900030B500228B071C0F0F2303FA04F20F4B14
:1009A00008338C1053F8243093430C4C08348D10CA
:1009B00044F8253023468C1053F824308C07240F3C
:1009C00000FA04F42343054C08348D1044F8253014
:1009D00030BD00000014014000F8FEBF00000140DF
:1009E00000002042DE48006840F00100DC49086059
:1009F00008464068DB490840D94948600846006815
:100A0000D9490840D64908600846006820F480208B
:100A100008600846406820F4FE00486000208860B6
:100A20007047CF49096821F48031CD4A11601146E1
:100A3000096821F480211160B0F5803F03D0B0F542
:100A4000802F0ED106E0C649096841F48031C44ABE
:100A5000116007E0C249096841F4A021C04A116051
:100A600000E000BF00BF704710B501460022002320
:100A700000204A11012A02D1B94C236806E0022A5B
:100A800002D1B74C236A01E0B54C636A01F01F0242
:100A9000012494401C400CB1012000E0002010BD56
:100AA00038B5002000900024002500BF3120FFF75A
:100AB000DBFF05460098401C00901DB90098B0F57A
:100AC000A06FF3D13120FFF7CFFF08B1012400E080
:100AD0000024204638BD01460020A14A106820F0BD
:100AE000F80040EAC10010607047A04908607047F4
:100AF000024600209A4B586820F47C1042EA010319
:100B00001843974B586070479849086670470146EC
:100B10000020934A506820F003000843506070475B
:100B20008F48406800F00C007047014600208C4A56
:100B3000506820F0F00008435060704701460020E4
:100B4000874A506820F4E0600843506070470146CF
:100B50000020834A506820F4605040EAC100506091
:100B6000704729B17E4A527A02437D4B5A7204E0A3
:100B70007B4A527A82437A4B5A7270477B49D8310A
:100B80000860704701460020754A506820F44040D4
:100B90000843506070470021714A20321170704A3A
:100BA00082F82010012802D004280AD104E0012193
:100BB0006B4A2032117005E00521694A203211701C
:100BC00000E000BF00BF7047694908607047644992
:100BD000096A0143624A11627047654944390860F5
:100BE000704730B500210022002400235C4D6D6861
:100BF00005F00C0121B1042905D0082923D105E015
:100C00005C4D056022E05B4D05601FE0544D6D6852
:100C100005F47012022505EB9242514D6D6805F402
:100C200080341CB9544D554305600BE04C4D6D6844
:100C300005F400351DB1504D5543056002E04D4DA2
:100C40005543056002E04B4D056000BF00BF444DB9
:100C50006D6805F0F0010909484D6B5C0568DD40E1
:100C600045603F4D6D6805F4E061090A434D6B5CDA
:100C70004568DD4085603A4D6D6805F46051C90AEC
:100C80003E4D6B5C4568DD40C560354D6D6805F4D3
:100C90004041890B3A4D6B5CC568B5FBF3F50561C6
:100CA00030BD29B12E4A526902432D4B5A6104E0EE
:100CB0002B4A526982432A4B5A61704729B1284A0C
:100CC00092690243264B9A6104E0254A9269824365
:100CD000234B9A61704729B1214AD2690243204BC4
:100CE000DA6104E01E4AD26982431D4BDA61704723
:100CF00029B11B4AD2680243194BDA6004E0184A52
:100D0000D2688243164BDA60704729B1144A1269DF
:100D10000243134B1A6104E0114A12698243104BDB
:100D20001A61704712494039086070470F49C8641A
:100D300070470B49C87170470948406A40F080709D
:100D400007494862704701460020054A92680A40F8
:100D50000AB1012000E00020704701498872704705
:100D6000001002400000FFF8FFFFF6FE00004242C4
:100D70008004424200127A0000093D000A0000206F
:100D80001A00002010B50446D749601A8C422BD0B7
:100D900006DCD648204498B1B0F5806F38D119E010
:100DA000B0F5806F2AD0B0F56C4F31D101218803A6
:100DB000FFF79EFF00214FF48040FFF799FF28E0E6
:100DC00001214804FFF7A1FF00214FF40030FFF795
:100DD0009CFF1EE001218804FFF797FF00214FF4DC
:100DE0008020FFF792FF14E00121C804FFF78DFF78
:100DF00000214FF40020FFF788FF0AE001210805D9
:100E0000FFF783FF00214FF48010FFF77EFF00E023
:100E100000BF00BF10BD2DE9F04786B005460E4665
:100E20000024A24600BF00BF00272F462C8A4CF6A4
:100E3000FF700440F08804432C82AC894EF6F31016
:100E40000440B08831890843718908430443AC8168
:100E5000AC8A4FF6FF400440B0890443AC8201A83D
:100E6000FFF7BFFEA248874202D1DDF810A001E0E3
:100E7000DDF80CA00AEBCA0000EB0A10316889000B
:100E8000B0FBF1F86420B8FBF0F004012009642104
:100E900001FB1089322000EB0910B0FBF1F000F0EB
:100EA0000F0004432C8106B0BDE8F0874FF41651C3
:100EB000016000218180C18001810C2141810021DC
:100EC0008181704710B502460020108A4FF2FF035F
:100ED00018400B884C8823438C882343CC882343B9
:100EE0001843108210BD0021018041808180C180A3
:100EF000704721B1828942F40052828104E08289E4
:100F00004DF6FF731A4082817047F0B50346002406
:100F10000026002500201846C1F3421401F01F06E8
:100F2000012707FA06F5012C01D10C3004E0022C50
:100F300001D1103000E014301AB107682F43076068
:100F400002E00768AF430760F0BD1AB1838A0B4324
:100F5000838202E0838A8B4383827047028A4FF642
:100F6000F0731A400282028A0A4302827047828921
:100F70004FF2FF731A40828182890A43828170474F
:100F800021B1828942F00202828104E082894FF617
:100F9000FD731A4082817047028A4FF6DF731A4050
:100FA0000282028A0A430282704721B1028A42F415
:100FB0008042028204E0028A4BF6FF731A400282EA
:100FC0007047C1F308028280704701468888C0F3E9
:100FD00008007047818941F0010181817047028BCF
:100FE000D2B20283028B42EA012202837047028B53
:100FF00002F47F420283028B0A430283704721B1CD
:10100000828A42F02002828204E0828A4FF6DF73F5
:101010001A408282704721B1828A42F01002828295
:1010200004E0828A4FF6EF731A408282704721B142
:10103000828A42F00802828204E0828A4FF6F773C5
:101040001A4082827047828A4FF6FB731A4082826E
:10105000828A0A438282704721B1828A42F0020268
:10106000828204E0828A4FF6FD731A4082827047C2
:101070000246002013880B400BB1012000E0002045
:101080007047CA430280704770B502460B46002481
:10109000002100250020C3F3421503F01F010126A3
:1010A00006FA01F1012D02D19689314006E0022DA8
:1010B00002D1168A314001E0968A31401C12012685
:1010C00006FA04F41688344011B10CB1012000E096
:1010D000002070BD10B5002200230A1201249440A4
:1010E000A3B2DC43048010BD004C004000BCFFBF35
:1010F0000038014010B50446BD48204478B1B0F531
:10110000806F16D0B0F5784F1DD101210803FFF78D
:10111000EFFD00214FF48050FFF7EAFD14E00121BC
:101120008803FFF7F2FD00214FF48040FFF7EDFD4B
:101130000AE00121C803FFF7E8FD00214FF4004059
:10114000FFF7E3FD00E000BF00BF10BD10B50022B7
:10115000028802F441520B884C8823438C88234335
:10116000CC8823430C8923434C8923438C89234314
:10117000CC8923431A430280838B4FF2FF742340B0
:1011800083830B8A038210BD2DE9F04786B00546A4
:101190000C464FF0000902274FF000084FF0010AFB
:1011A0000026A88B4FF240010840A8830220288423
:1011B000B5F81C902089022801D100BF31E0A08839
:1011C00010B94FF0010A01E04FF0020A01A8FFF741
:1011D00008FDE088B0F5007F0AD1019800EB80009F
:1011E000400021890902B0FBF1F0401D86B20BE0FE
:1011F0004FEA4A1021894843019901EB81014900D6
:10120000B1FBF0F0401D86B20A20B6FBF0F606F006
:101210000108A6EB0800C0F34F074FF6FF7000EA85
:101220000828022F01DBFF2F02DD02274FF0000804
:1012300047EA0800E18808432884208840F40060D9
:1012400061880843A18808436189084340EA090985
:10125000A5F81C9006B0BDE8F08700210180418010
:101260008180C180018141818181C1810721018209
:1012700070470021018041808180C180022101816D
:1012800000214181704721B1028842F04002028072
:1012900004E002884FF6BF731A400280704721B104
:1012A000828B42F48062828304E0828B4FF6FF33AC
:1012B0001A408283704730B5002400230C110125A9
:1012C000A540ABB21AB185881D43858002E08588B0
:1012D0009D43858030BD1AB183880B43838002E033
:1012E00083888B438380704781817047014688895A
:1012F00070474FF6FF62914204D0028842F4807238
:10130000028004E002884FF6FF631A4002807047B3
:1013100021B1828842F00402828004E082884FF684
:10132000FB731A408280704702884FF2FF731A40A5
:10133000028002880A4302807047018841F480518C
:101340000180704721B1028842F40052028004E01B
:1013500002884DF6FF731A40028070470246002053
:10136000012901D0108B00E0908A70470146088A5D
:101370007047B1F5804F04D1028842F48042028068
:1013800004E002884BF6FF731A4002807047024661
:10139000002013890B400BB1012000E000207047B2
:1013A000CA4302817047F0B50246002000240023A2
:1013B000002501F00F070126BE40B4B20B11012633
:1013C0009E40B3B2968806EA03051689264016B1F8
:1013D0000DB1012000E00020F0BD10B5002201F0A9
:1013E0000F040123A3409AB2D343038110BD000030
:1013F00000C8FFBF10B50446F749601A8C4245D0BB
:101400000CDCB4F1804F1DD0F448204418B3B0F583
:10141000806F29D0B0F5006F54D12EE0B0F5806F09
:101420003DD0B0F58E3F03D0B0F5923F4AD13FE0BA
:101430000121C802FFF75CFC00214FF40060FFF7B8
:1014400057FC40E001210846FFF75FFC0021012026
:10145000FFF75BFC37E001210220FFF756FC00217B
:101460000220FFF752FC2EE001210420FFF74DFC83
:1014700000210420FFF749FC25E001210820FFF7A7
:1014800044FC00210820FFF740FC1CE00121102053
:10149000FFF73BFC00211020FFF737FC13E0012190
:1014A0002020FFF732FC00212020FFF72EFC0AE06D
:1014B00001214803FFF71CFC00214FF40050FFF707
:1014C00017FC00E000BF00BF10BD028802F08F02D1
:1014D0000280CA884B881A4303881A4302808A888C
:1014E00082850A880285BE4A904202D0BD4A904257
:1014F00001D10A7A028601228282704770B50024E7
:1015000000220023058C4FF6FE7635400584028CC0
:101510008388048B4FF68F752C400D882C43751EE5
:101520002A400D892A434D882A43CD888586AC4DB3
:10153000A84202D0AB4DA84213D14FF6F7752A400E
:101540004D892A434FF6FB752A408D882A4347F67A
:10155000FF652B4047F6FF552B408D892B43CD89E6
:101560002B4383800483028470BD70B50024002265
:101570000023058C4FF6EF7635400584028C838876
:10158000048B48F6FF752C400D884FF6FF7606EA6F
:1015900005252C434FF6DF752A400D8906EA05150F
:1015A0002A434D8806EA05152A43CD8805878C4DC8
:1015B000A84202D08B4DA8421DD14FF67F752A401C
:1015C0004D894FF6FF7606EA05152A434FF6BF759B
:1015D0002A408D8806EA05152A4347F6FF352B4039
:1015E00047F2FF752B408D8906EA85052B43CD898F
:1015F00006EA85052B4383800483028470BD70B5A1
:10160000002400220023058C4FF6FF663540058438
:10161000028C8388848B4FF68F752C400D882C4369
:101620004FF6FF552A400D894FF6FF7606EA05254D
:101630002A434D8806EA05252A43CD888587684DCB
:10164000A84202D0674DA8421DD14FF2FF752A4033
:101650004D894FF6FF7606EA05252A434FF6FF35FA
:101660002A408D8806EA05252A4346F6FF752B4059
:1016700045F6FF752B408D8906EA05152B43CD896C
:1016800006EA05152B4383808483028470BD70B500
:10169000002400220023058C4EF6FF763540058499
:1016A000028C8388848B48F6FF752C400D884FF69A
:1016B000FF7606EA05252C434DF6FF752A400D8975
:1016C00006EA05352A434D8806EA05352A43CD88C2
:1016D000A0F84050424DA84202D0424DA84207D146
:1016E000C3F30D038D894FF6FF7606EA85152B436C
:1016F00083808483028470BD828B4FF2FF331A4053
:101700008283828B4FF6FF7303EA01231A4382839D
:101710007047F0B50C461546002100220026078CC4
:101720004EF6FF7C07EA0C070784818B028C4FF68C
:10173000FF7707EA043640F6FF4739404FF6FF7758
:1017400007EA05274FF6FF7C0CEA033C47EA0C0743
:1017500039434DF6FF773A4046F480573A43818348
:101760000284F0BD828B4FF6F3731A408283828B22
:101770000A4382837047F0B50C46154600210022CB
:101780000026078C4FF6FF6C07EA0C070784818B55
:10179000028C4FF6FF7707EA04264FF60C773940A4
:1017A0004FF6FF7707EA03172F4339434FF6FF57EA
:1017B0003A4046F480773A4381830284F0BD028B3D
:1017C0004FF2FF331A400283028B4FF6FF7303EA96
:1017D00001231A43028370470010004000FCFFBF42
:1017E000002C014000340140F0B50C4615460021A4
:1017F00000220026078C4FF6EF7C07EA0C070784CF
:10180000018B028C4FF6FF7707EA041640F6FF477C
:1018100039404FF6FF7707EA033739434FF6FF7732
:1018200007EA052739434FF6DF773A4046F01007BD
:101830003A4301830284F0BD028B4FF6F3731A40E2
:101840000283028B0A4302837047F0B50C461546AB
:1018500000210022068C4FF6FE773E400684018B65
:10186000028C4FF60C7631407E1C06EA03162E439E
:1018700031437E1E324044F001063243018302842C
:10188000F0BD70B505460C46208850B92389A28862
:1018900061882846FFF7D9FFE1882846FFF7CCFF8B
:1018A00025E0208804280AD12389A2886188284657
:1018B000FFF79AFFE1882846FFF781FF17E02088AD
:1018C00008280AD12389A28861882846FFF753FF98
:1018D000E1882846FFF746FF09E02389A28861884E
:1018E0002846FFF716FFE1882846FFF705FF70BD81
:1018F0002DE9F04105460C4600260127608808B90D
:10190000022600E00026A088012801D1022700E07D
:1019100001272088A0B92389A28861882846FFF77B
:1019200094FFE1882846FFF787FF23893A4631462E
:101930002846FFF759FFE1882846FFF740FF13E0EC
:101940002389A28861882846FFF74EFFE188284650
:10195000FFF735FF23893A4631462846FFF775FFE2
:10196000E1882846FFF768FFBDE8F0810A884B88C8
:101970001A438B881A43CB881A430B891A434B8925
:101980001A438B891A43A0F8442070474FF6FF7121
:10199000818000210180C180418001727047002157
:1019A000018041808180C180018141818181C1812B
:1019B0007047002101804180012181800021C18088
:1019C000018170470021018041808180C1800181B7
:1019D00041818181704721B1028842F00102028079
:1019E00004E0028840F2FE331A400280704731B1B1
:1019F000B0F8442042F40042A0F8442005E0B0F8DA
:101A00004420C2F30E02A0F8442070471AB1838923
:101A10000B43838102E083898B43838170478182FA
:101A2000704741EA0203A0F8483070471AB1838931
:101A30000B43838102E083898B4383817047018953
:101A40004FF6F8721140018170470A460021018962
:101A50004FF68F73194011430181704730B504462A
:101A60000D4629462046FFF7F0FF208940F0070089
:101A7000208130BD2DE9F04104460D4616461F4633
:101A8000602D06D13B46012231462046FFF7ACFED1
:101A900005E03B46012231462046FFF7D6FE2946A7
:101AA0002046FFF7D2FF208940F007002081BDE8E3
:101AB000F08170B50C4600210189C9B244EA0205E3
:101AC0004FF6FF7606EA032635432943018170BDB0
:101AD0002DE9F04105460E46174698460024434638
:101AE0003A4631462846FFF7E4FF2C894FF6F87056
:101AF000044044F007044FF68F70044044F0700433
:101B00002C81BDE8F081F0B504460D4616461F460F
:101B10003B46324629462046FFF7CBFF208940F45A
:101B200080402081F0BD0185828270470A460021F5
:101B3000018840F28F331940114301807047F0B59E
:101B40000C4615461E460021002200230189028B07
:101B5000038C4FF6F877394021434FF6FC473A4063
:101B600040F201173A434FF6DD773B404FF6FF77DF
:101B700007EA06172F433B43018102830384F0BD2C
:101B80000A460021018B4FF68F73194011430183E0
:101B900070470A460021018B48F6FF7319404FF643
:101BA000FF7303EA02231943018370470A460021A9
:101BB000818B4FF68F7319401143818370470A461A
:101BC0000021818B48F6FF7319404FF6FF7303EA3B
:101BD000022319438183704721B1028842F08002B9
:101BE000028004E0028840F27F331A40028070478E
:101BF00021B1828842F00402828004E082884FF69C
:101C0000FB731A408280704721B1828842F008023B
:101C1000828004E082884FF6F7731A408280704712
:101C200021B1828842F00102828004E082884FF66E
:101C3000FE731A40828070470A460021018B4FF6DE
:101C4000F77319401143018370470A460021018B45
:101C50004FF2FF7319404FF6FF7303EA0223194353
:101C6000018370470A460021818B4FF6F7731940B4
:101C70001143818370470A460021818B4FF2FF7325
:101C800019404FF6FF7303EA02231943818370471B
:101C90000A460021018B4FF6FB7319401143018363
:101CA00070470A460021018B4FF6FF3319404FF66B
:101CB000FF7303EA02231943018370470A46002198
:101CC000818B4FF6FB7319401143818370470A469D
:101CD0000021818B4FF6FF3319404FF6FF7303EA63
:101CE00002231943818370470A460021018B4FF676
:101CF0007F7319401143018370470A460021018B0D
:101D0000C1F30E014FF6FF7303EA02231943018367
:101D100070470A460021818B4FF67F7319401143AB
:101D2000818370470A460021818BC1F30E014FF673
:101D3000FF7303EA02231943818370470A46002197
:101D4000018C4FF6FD7319401143018470470A4618
:101D50000021018C4FF6F77319401143018470473D
:101D60000A460021018C4FF6DF7319404FF6FF73CE
:101D700003EA02131943018470470A460021018CCB
:101D80004FF67F7319404FF6FF7303EA02131943AE
:101D9000018470470A460021018C4FF6FF53194019
:101DA0004FF6FF7303EA02231943018470470A4682
:101DB0000021018C4FF2FF7319404FF6FF7303EAC5
:101DC00002231943018470470A460021018C4DF615
:101DD000FF7319404FF6FF7303EA0233194301847E
:101DE000704710B5038C01248C40A3430384038CFB
:101DF00002FA01F4A4B22343038410BD10B5038C8E
:101E000004248C40A3430384038C02FA01F4A4B29B
:101E10002343038410BD30B5038C01248C40A343BD
:101E2000038409B1082918D100F1180303EB6103F9
:101E30001B684FF68F74234000F1180404EB610413
:101E4000236000F1180303EB61031B68134300F1E7
:101E5000180404EB610423601FE00B1FC3F34E045E
:101E600000F118031B5948F6FF7423400C1FC4F3FC
:101E70004E0500F1180463510B1FC3F34E0400F12B
:101E800018031B594FF6FF7404EA022423430C1F66
:101E9000C4F34E0500F11804635130BD21B102882E
:101EA00042F00202028004E0028840F2FD331A4050
:101EB0000280704721B1028842F00402028004E0EF
:101EC000028840F2FB331A400280704721B18288B9
:101ED00042F08002828004E082884FF67F731A40CD
:101EE00082807047028840F2F7331A4002800288ED
:101EF0000A430280704782884FF68F731A408280AF
:101F000082880A438280704702894FF6F8731A402C
:101F1000028102890A430281704702894FF67F736A
:101F20001A40028102890A43028170478184704706
:101F30008185704781867047018770478187704728
:101F4000A0F8401070470288D2B2028002880A438B
:101F5000028070470146888E70470146088F70479F
:101F60000146888F70470146B1F84000704701462E
:101F7000888C70470146088D704702460020138AFE
:101F80000B400BB1012000E000207047CA430282E1
:101F9000704730B50246002000230024158A05EA68
:101FA0000103958905EA010413B10CB1012000E099
:101FB000002030BDCA43028270470000314901430E
:101FC000314A1160704770B5002100230F22C47898
:101FD00004B32D4C246804F4E064C4F5E064210AE1
:101FE000C1F10403CA40447804FA03F18478144030
:101FF00021430901254C0678A155047804F01F05FA
:102000000124AC4005786D11AD0005F1E025C5F85F
:10201000004109E0047804F01F050124AC401C4D88
:102020000678761145F8264070BD1A4A0A400243E8
:10203000154B1B1F1A60704739B1134A121D1268E5
:102040000243114B1B1D1A6006E00F4A121D126855
:1020500082430D4B1B1D1A607047042808D14FF0B6
:10206000E021096941F004014FF0E022116107E02D
:102070004FF0E021096921F004014FF0E0221161E5
:10208000704700000000FA050CED00E000E400E0FD
:1020900080E100E080FFFF1F0CB500200190009060
:1020A0004748006840F480304549086000BF444814
:1020B000006800F4003000900198401C01900098E6
:1020C00018B90198B0F5A06FF1D13D48006800F44F
:1020D000003010B10120009001E000200090009835
:1020E000012844D13748006840F0100035490860A5
:1020F0000846006820F0030008600846006840F0C9
:10210000020008602E4840682D4948600846406833
:1021100048600846406840F480604860084640686F
:1021200020F47C1048600846406840F4E81048609D
:102130000846006840F08070086000BF20480068D2
:1021400000F000700028F9D01D48406820F003001E
:102150001B4948600846406840F00200486000BFE4
:102160001748406800F00C000828F9D101E000BFD2
:10217000FEE70CBD10B5FFF78FFF10BD10B510487E
:10218000006840F001000E490860084640680E49AA
:1021900008400B494860084600680C490840084957
:1021A00008600846006820F48020086008464068FF
:1021B00020F4FE00486000208860FFF7DBFF10BDC0
:1021C00000100240002002400000FFF8FFFFF6FE72
:1021D0002DE9F05F0546002092469B46884606465C
:1021E000814640241BE0284641464746224600F0EF
:1021F00042F853465A46C01A914110D31146184628
:10220000224600F029F82D1A67EB01084F462246B6
:102210000120002100F020F817EB00094E41201E9C
:10222000A4F10104DFDC484631462A464346BDE8B6
:10223000F09F0000064C074D06E0E06840F0010307
:1022400094E8070098471034AC42F6D3FDF774FFCA
:1022500098250008B8250008202A04DB203A00FA57
:1022600002F1002070479140C2F1200320FA03F3ED
:10227000194390407047202A04DB203A21FA02F0EB
:102280000021704721FA02F3D040C2F120029140B0
:1022900008431946704700000FB4054B10B503A959
:1022A000044A029800F018F810BC5DF814FB000016
:1022B0005B0500080400002002E008C8121F08C1E6
:1022C000002AFAD170477047002001E001C1121FB7
:1022D000002AFBD1704700002DE9FF4F8DB09B46CF
:1022E0000F460446002606E025280BD05A460F99D3
:1022F0009047641C761C20780028F5D111B0304638
:10230000BDE8F08F0025A8460122984900E005436A
:1023100014F8013F203B02FA03F00842F7D120787D
:102320002E2817D114F8010F45F004052A280ED0E5
:102330006FF02F022078A0F1300109290AD808EBAC
:10234000880102EB410100EB0108641CF2E757F839
:10235000048B641C20786C280DD004DC4C2812D02F
:102360006A2811D104E074280DD07A280CD10AE033
:1023700045F4001507E0617845F48015814202D1EB
:10238000641C05F58015641C2278692A45D008DC98
:10239000002AB3D0582A69D0632A10D0642A08D101
:1023A0003BE0702A67D0732A13D0752A5CD0782A54
:1023B0005CD010465A460F999047761CD3E017F828
:1023C000040B8DF8000000208DF80100E946012083
:1023D00003E057F8049B4FF0FF3069074FF000050A
:1023E00001D40AE06D1C45450DDA8542FADB19F887
:1023F00005100029F6D106E06D1C8542FCDB19F8BA
:1024000005100029F8D12E4404E019F8010B5A46B2
:102410000F9990476D1EF8D2A5E00A200021CDE962
:102420000801C5F3025002280DD001CFC117031EC9
:1024300071F100030DDA4FF0000CD0EB0C006CEBE7
:1024400001012D2308E0FF1D27F00707F7E802012F
:10245000EDE72B0504D52B238DF8283001233BE035
:10246000EB0739D02023F7E70A2000E010200021F5
:10247000CDE9080107E01020002145F00405CDE971
:1024800008014FF00808C5F3025002280FD001CF11
:1024900000214FF0000A2B071FD5702A0DD0DDE96F
:1024A00008C38CF0100C5CEA030C0CD015E0FF1D87
:1024B00027F00707F7E80201EBE740228DF8282014
:1024C0004FF0010A0BE050EA010306D030238DF8EB
:1024D00028308DF8292002239A46582A04D024A2B5
:1024E0000DF120090B9209E026A2F9E7DDE90823A6
:1024F000FFF76EFE0B9B9B5C09F8013D50EA010261
:10250000F4D1ADEB090020300890680701D44FF0FA
:1025100001080899884502DDA8EB010000E00020D1
:102520008046002506E00AA85A46405D0F9990476C
:102530006D1C761C5545F6DB04E030205A460F9999
:102540009047761CB8F10001A8F10108F5DC05E020
:1025500019F8010B5A460F999047761C0899481EA6
:1025600008900029F4DC641CC5E60000092801007D
:1025700030313233343536373839616263646566F9
:1025800000000000303132333435363738394142BB
:102590004344454600000000B82500080000002024
:1025A00020000000B8220008D825000820000020E4
:1025B000C8020000C822000800000000000000005F
:1025C00000000000000001020304010203040607EA
:0825D0000809020406080000DE
:0400000508000147A7
:00000001FF
